{
  "contractName": "wallet",
  "abi": [
    {
      "inputs": [],
      "stateMutability": "payable",
      "type": "constructor",
      "payable": true
    },
    {
      "inputs": [],
      "name": "owner",
      "outputs": [
        {
          "internalType": "address",
          "name": "",
          "type": "address"
        }
      ],
      "stateMutability": "view",
      "type": "function",
      "constant": true
    },
    {
      "stateMutability": "payable",
      "type": "receive",
      "payable": true
    },
    {
      "inputs": [
        {
          "internalType": "uint256",
          "name": "i",
          "type": "uint256"
        }
      ],
      "name": "getHistory",
      "outputs": [
        {
          "internalType": "string",
          "name": "",
          "type": "string"
        }
      ],
      "stateMutability": "view",
      "type": "function",
      "constant": true
    },
    {
      "inputs": [],
      "name": "noOfTransactions",
      "outputs": [
        {
          "internalType": "uint256",
          "name": "",
          "type": "uint256"
        }
      ],
      "stateMutability": "view",
      "type": "function",
      "constant": true
    },
    {
      "inputs": [
        {
          "internalType": "address",
          "name": "receiver",
          "type": "address"
        },
        {
          "internalType": "uint256",
          "name": "amt",
          "type": "uint256"
        }
      ],
      "name": "transferAmount",
      "outputs": [],
      "stateMutability": "payable",
      "type": "function",
      "payable": true
    },
    {
      "inputs": [
        {
          "internalType": "uint256",
          "name": "amt",
          "type": "uint256"
        }
      ],
      "name": "widthdrawAmount",
      "outputs": [],
      "stateMutability": "nonpayable",
      "type": "function"
    },
    {
      "inputs": [],
      "name": "checkBalance",
      "outputs": [
        {
          "internalType": "uint256",
          "name": "",
          "type": "uint256"
        }
      ],
      "stateMutability": "view",
      "type": "function",
      "constant": true
    }
  ],
  "bytecode": "0x6080604052336000806101000a81548173ffffffffffffffffffffffffffffffffffffffff021916908373ffffffffffffffffffffffffffffffffffffffff16021790555062000058333034426200005e60201b60201c565b62000f18565b60006200008c8573ffffffffffffffffffffffffffffffffffffffff166200026c60201b620007de1760201c565b90506000620000bc8573ffffffffffffffffffffffffffffffffffffffff166200026c60201b620007de1760201c565b9050600082620000d786620002ff60201b620008631760201c565b83620000fd6103e888620000ec91906200070c565b620002ff60201b620008631760201c565b60405160200162000112949392919062000910565b604051602081830303815290604052905060006040518060a001604052808973ffffffffffffffffffffffffffffffffffffffff1681526020018873ffffffffffffffffffffffffffffffffffffffff168152602001878152602001868152602001838152509050600181908060018154018082558091505060019003906000526020600020906005020160009091909190915060008201518160000160006101000a81548173ffffffffffffffffffffffffffffffffffffffff021916908373ffffffffffffffffffffffffffffffffffffffff16021790555060208201518160010160006101000a81548173ffffffffffffffffffffffffffffffffffffffff021916908373ffffffffffffffffffffffffffffffffffffffff160217905550604082015181600201556060820151816003015560808201518160040190816200025f919062000bef565b5050505050505050505050565b606060008203620002b5576040518060400160405280600481526020017f30783030000000000000000000000000000000000000000000000000000000008152509050620002fa565b600082905060005b60008214620002e3578080620002d39062000cd6565b915050600882901c9150620002bd565b620002f584826200047860201b60201c565b925050505b919050565b60606000820362000348576040518060400160405280600181526020017f3000000000000000000000000000000000000000000000000000000000000000815250905062000473565b600082905060005b6000821462000380578080620003669062000cd6565b915050600a8262000378919062000d52565b915062000350565b60008167ffffffffffffffff8111156200039f576200039e6200098a565b5b6040519080825280601f01601f191660200182016040528015620003d25781602001600182028036833780820191505090505b5090505b600085146200046c57600182620003ee919062000d8a565b9150600a85620003ff919062000dc5565b60306200040d919062000dfd565b60f81b81838151811062000426576200042562000e38565b5b60200101907effffffffffffffffffffffffffffffffffffffffffffffffffffffffffffff1916908160001a905350600a8562000464919062000d52565b9450620003d6565b8093505050505b919050565b6060600060028360026200048d91906200070c565b62000499919062000dfd565b67ffffffffffffffff811115620004b557620004b46200098a565b5b6040519080825280601f01601f191660200182016040528015620004e85781602001600182028036833780820191505090505b5090507f30000000000000000000000000000000000000000000000000000000000000008160008151811062000523576200052262000e38565b5b60200101907effffffffffffffffffffffffffffffffffffffffffffffffffffffffffffff1916908160001a9053507f7800000000000000000000000000000000000000000000000000000000000000816001815181106200058a576200058962000e38565b5b60200101907effffffffffffffffffffffffffffffffffffffffffffffffffffffffffffff1916908160001a90535060006001846002620005cc91906200070c565b620005d8919062000dfd565b90505b600181111562000682577f3031323334353637383961626364656600000000000000000000000000000000600f8616601081106200061e576200061d62000e38565b5b1a60f81b82828151811062000638576200063762000e38565b5b60200101907effffffffffffffffffffffffffffffffffffffffffffffffffffffffffffff1916908160001a905350600485901c9450806200067a9062000e67565b9050620005db565b5060008414620006c9576040517f08c379a0000000000000000000000000000000000000000000000000000000008152600401620006c09062000ef6565b60405180910390fd5b8091505092915050565b6000819050919050565b7f4e487b7100000000000000000000000000000000000000000000000000000000600052601160045260246000fd5b60006200071982620006d3565b91506200072683620006d3565b92508282026200073681620006d3565b9150828204841483151762000750576200074f620006dd565b5b5092915050565b600081519050919050565b600081905092915050565b60005b838110156200078d57808201518184015260208101905062000770565b60008484015250505050565b6000620007a68262000757565b620007b2818562000762565b9350620007c48185602086016200076d565b80840191505092915050565b7f2073656e7420616e20616d6f756e74206f662000000000000000000000000000600082015250565b60006200080860138362000762565b91506200081582620007d0565b601382019050919050565b7f20746f2000000000000000000000000000000000000000000000000000000000600082015250565b60006200085860048362000762565b9150620008658262000820565b600482019050919050565b7f2061742000000000000000000000000000000000000000000000000000000000600082015250565b6000620008a860048362000762565b9150620008b58262000870565b600482019050919050565b7f207365636f6e6473000000000000000000000000000000000000000000000000600082015250565b6000620008f860088362000762565b91506200090582620008c0565b600882019050919050565b60006200091e828762000799565b91506200092b82620007f9565b915062000939828662000799565b9150620009468262000849565b915062000954828562000799565b9150620009618262000899565b91506200096f828462000799565b91506200097c82620008e9565b915081905095945050505050565b7f4e487b7100000000000000000000000000000000000000000000000000000000600052604160045260246000fd5b7f4e487b7100000000000000000000000000000000000000000000000000000000600052602260045260246000fd5b6000600282049050600182168062000a0157607f821691505b60208210810362000a175762000a16620009b9565b5b50919050565b60008190508160005260206000209050919050565b60006020601f8301049050919050565b600082821b905092915050565b60006008830262000a817fffffffffffffffffffffffffffffffffffffffffffffffffffffffffffffffff8262000a42565b62000a8d868362000a42565b95508019841693508086168417925050509392505050565b6000819050919050565b600062000ad062000aca62000ac484620006d3565b62000aa5565b620006d3565b9050919050565b6000819050919050565b62000aec8362000aaf565b62000b0462000afb8262000ad7565b84845462000a4f565b825550505050565b600090565b62000b1b62000b0c565b62000b2881848462000ae1565b505050565b5b8181101562000b505762000b4460008262000b11565b60018101905062000b2e565b5050565b601f82111562000b9f5762000b698162000a1d565b62000b748462000a32565b8101602085101562000b84578190505b62000b9c62000b938562000a32565b83018262000b2d565b50505b505050565b600082821c905092915050565b600062000bc46000198460080262000ba4565b1980831691505092915050565b600062000bdf838362000bb1565b9150826002028217905092915050565b62000bfa8262000757565b67ffffffffffffffff81111562000c165762000c156200098a565b5b62000c228254620009e8565b62000c2f82828562000b54565b600060209050601f83116001811462000c67576000841562000c52578287015190505b62000c5e858262000bd1565b86555062000cce565b601f19841662000c778662000a1d565b60005b8281101562000ca15784890151825560018201915060208501945060208101905062000c7a565b8683101562000cc1578489015162000cbd601f89168262000bb1565b8355505b6001600288020188555050505b505050505050565b600062000ce382620006d3565b91507fffffffffffffffffffffffffffffffffffffffffffffffffffffffffffffffff820362000d185762000d17620006dd565b5b600182019050919050565b7f4e487b7100000000000000000000000000000000000000000000000000000000600052601260045260246000fd5b600062000d5f82620006d3565b915062000d6c83620006d3565b92508262000d7f5762000d7e62000d23565b5b828204905092915050565b600062000d9782620006d3565b915062000da483620006d3565b925082820390508181111562000dbf5762000dbe620006dd565b5b92915050565b600062000dd282620006d3565b915062000ddf83620006d3565b92508262000df25762000df162000d23565b5b828206905092915050565b600062000e0a82620006d3565b915062000e1783620006d3565b925082820190508082111562000e325762000e31620006dd565b5b92915050565b7f4e487b7100000000000000000000000000000000000000000000000000000000600052603260045260246000fd5b600062000e7482620006d3565b91506000820362000e8a5762000e89620006dd565b5b600182039050919050565b600082825260208201905092915050565b7f537472696e67733a20686578206c656e67746820696e73756666696369656e74600082015250565b600062000ede60208362000e95565b915062000eeb8262000ea6565b602082019050919050565b6000602082019050818103600083015262000f118162000ecf565b9050919050565b6117508062000f286000396000f3fe6080604052600436106100595760003560e01c806312c0a1ab146100cb5780638da5cb5b146100f4578063b758230d1461011f578063c71daccb1461014a578063c8691b2a14610175578063d7081e03146101b2576100c6565b366100c6573373ffffffffffffffffffffffffffffffffffffffff16313411156100b8576040517f08c379a00000000000000000000000000000000000000000000000000000000081526004016100af90610c82565b60405180910390fd5b6100c4333034426101ce565b005b600080fd5b3480156100d757600080fd5b506100f260048036038101906100ed9190610cdd565b6103a2565b005b34801561010057600080fd5b506101096104c9565b6040516101169190610d4b565b60405180910390f35b34801561012b57600080fd5b506101346104ed565b6040516101419190610d75565b60405180910390f35b34801561015657600080fd5b5061015f6104fa565b60405161016c9190610d75565b60405180910390f35b34801561018157600080fd5b5061019c60048036038101906101979190610cdd565b610591565b6040516101a99190610e0f565b60405180910390f35b6101cc60048036038101906101c79190610e5d565b610648565b005b60006101ef8573ffffffffffffffffffffffffffffffffffffffff166107de565b905060006102128573ffffffffffffffffffffffffffffffffffffffff166107de565b905060008261022086610863565b836102376103e8886102329190610ecc565b610863565b60405160200161024a949392919061107a565b604051602081830303815290604052905060006040518060a001604052808973ffffffffffffffffffffffffffffffffffffffff1681526020018873ffffffffffffffffffffffffffffffffffffffff168152602001878152602001868152602001838152509050600181908060018154018082558091505060019003906000526020600020906005020160009091909190915060008201518160000160006101000a81548173ffffffffffffffffffffffffffffffffffffffff021916908373ffffffffffffffffffffffffffffffffffffffff16021790555060208201518160010160006101000a81548173ffffffffffffffffffffffffffffffffffffffff021916908373ffffffffffffffffffffffffffffffffffffffff16021790555060408201518160020155606082015181600301556080820151816004019081610395919061131f565b5050505050505050505050565b60008054906101000a900473ffffffffffffffffffffffffffffffffffffffff1673ffffffffffffffffffffffffffffffffffffffff163373ffffffffffffffffffffffffffffffffffffffff1614610430576040517f08c379a000000000000000000000000000000000000000000000000000000000815260040161042790611463565b60405180910390fd5b47811115610473576040517f08c379a000000000000000000000000000000000000000000000000000000000815260040161046a90610c82565b60405180910390fd5b3373ffffffffffffffffffffffffffffffffffffffff166108fc829081150290604051600060405180830381858888f193505050501580156104b9573d6000803e3d6000fd5b506104c6303383426101ce565b50565b60008054906101000a900473ffffffffffffffffffffffffffffffffffffffff1681565b6000600180549050905090565b60008060009054906101000a900473ffffffffffffffffffffffffffffffffffffffff1673ffffffffffffffffffffffffffffffffffffffff163373ffffffffffffffffffffffffffffffffffffffff161461058b576040517f08c379a000000000000000000000000000000000000000000000000000000000815260040161058290611463565b60405180910390fd5b47905090565b6060600182815481106105a7576105a6611483565b5b906000526020600020906005020160040180546105c390611142565b80601f01602080910402602001604051908101604052809291908181526020018280546105ef90611142565b801561063c5780601f106106115761010080835404028352916020019161063c565b820191906000526020600020905b81548152906001019060200180831161061f57829003601f168201915b50505050509050919050565b60008054906101000a900473ffffffffffffffffffffffffffffffffffffffff1673ffffffffffffffffffffffffffffffffffffffff163373ffffffffffffffffffffffffffffffffffffffff16146106d6576040517f08c379a00000000000000000000000000000000000000000000000000000000081526004016106cd90611463565b60405180910390fd5b3373ffffffffffffffffffffffffffffffffffffffff168273ffffffffffffffffffffffffffffffffffffffff1603610744576040517f08c379a000000000000000000000000000000000000000000000000000000000815260040161073b90611524565b60405180910390fd5b47811115610787576040517f08c379a000000000000000000000000000000000000000000000000000000000815260040161077e90610c82565b60405180910390fd5b8173ffffffffffffffffffffffffffffffffffffffff166108fc829081150290604051600060405180830381858888f193505050501580156107cd573d6000803e3d6000fd5b506107da308383426101ce565b5050565b606060008203610825576040518060400160405280600481526020017f3078303000000000000000000000000000000000000000000000000000000000815250905061085e565b600082905060005b6000821461084f57808061084090611544565b915050600882901c915061082d565b61085984826109c3565b925050505b919050565b6060600082036108aa576040518060400160405280600181526020017f300000000000000000000000000000000000000000000000000000000000000081525090506109be565b600082905060005b600082146108dc5780806108c590611544565b915050600a826108d591906115bb565b91506108b2565b60008167ffffffffffffffff8111156108f8576108f76110e4565b5b6040519080825280601f01601f19166020018201604052801561092a5781602001600182028036833780820191505090505b5090505b600085146109b75760018261094391906115ec565b9150600a856109529190611620565b603061095e9190611651565b60f81b81838151811061097457610973611483565b5b60200101907effffffffffffffffffffffffffffffffffffffffffffffffffffffffffffff1916908160001a905350600a856109b091906115bb565b945061092e565b8093505050505b919050565b6060600060028360026109d69190610ecc565b6109e09190611651565b67ffffffffffffffff8111156109f9576109f86110e4565b5b6040519080825280601f01601f191660200182016040528015610a2b5781602001600182028036833780820191505090505b5090507f300000000000000000000000000000000000000000000000000000000000000081600081518110610a6357610a62611483565b5b60200101907effffffffffffffffffffffffffffffffffffffffffffffffffffffffffffff1916908160001a9053507f780000000000000000000000000000000000000000000000000000000000000081600181518110610ac757610ac6611483565b5b60200101907effffffffffffffffffffffffffffffffffffffffffffffffffffffffffffff1916908160001a90535060006001846002610b079190610ecc565b610b119190611651565b90505b6001811115610bb1577f3031323334353637383961626364656600000000000000000000000000000000600f861660108110610b5357610b52611483565b5b1a60f81b828281518110610b6a57610b69611483565b5b60200101907effffffffffffffffffffffffffffffffffffffffffffffffffffffffffffff1916908160001a905350600485901c945080610baa90611685565b9050610b14565b5060008414610bf5576040517f08c379a0000000000000000000000000000000000000000000000000000000008152600401610bec906116fa565b60405180910390fd5b8091505092915050565b600082825260208201905092915050565b7f6572726f723a20696e73756666696369656e742066756e647320696e2061636360008201527f6f756e7400000000000000000000000000000000000000000000000000000000602082015250565b6000610c6c602483610bff565b9150610c7782610c10565b604082019050919050565b60006020820190508181036000830152610c9b81610c5f565b9050919050565b600080fd5b6000819050919050565b610cba81610ca7565b8114610cc557600080fd5b50565b600081359050610cd781610cb1565b92915050565b600060208284031215610cf357610cf2610ca2565b5b6000610d0184828501610cc8565b91505092915050565b600073ffffffffffffffffffffffffffffffffffffffff82169050919050565b6000610d3582610d0a565b9050919050565b610d4581610d2a565b82525050565b6000602082019050610d606000830184610d3c565b92915050565b610d6f81610ca7565b82525050565b6000602082019050610d8a6000830184610d66565b92915050565b600081519050919050565b60005b83811015610db9578082015181840152602081019050610d9e565b60008484015250505050565b6000601f19601f8301169050919050565b6000610de182610d90565b610deb8185610bff565b9350610dfb818560208601610d9b565b610e0481610dc5565b840191505092915050565b60006020820190508181036000830152610e298184610dd6565b905092915050565b610e3a81610d2a565b8114610e4557600080fd5b50565b600081359050610e5781610e31565b92915050565b60008060408385031215610e7457610e73610ca2565b5b6000610e8285828601610e48565b9250506020610e9385828601610cc8565b9150509250929050565b7f4e487b7100000000000000000000000000000000000000000000000000000000600052601160045260246000fd5b6000610ed782610ca7565b9150610ee283610ca7565b9250828202610ef081610ca7565b91508282048414831517610f0757610f06610e9d565b5b5092915050565b600081905092915050565b6000610f2482610d90565b610f2e8185610f0e565b9350610f3e818560208601610d9b565b80840191505092915050565b7f2073656e7420616e20616d6f756e74206f662000000000000000000000000000600082015250565b6000610f80601383610f0e565b9150610f8b82610f4a565b601382019050919050565b7f20746f2000000000000000000000000000000000000000000000000000000000600082015250565b6000610fcc600483610f0e565b9150610fd782610f96565b600482019050919050565b7f2061742000000000000000000000000000000000000000000000000000000000600082015250565b6000611018600483610f0e565b915061102382610fe2565b600482019050919050565b7f207365636f6e6473000000000000000000000000000000000000000000000000600082015250565b6000611064600883610f0e565b915061106f8261102e565b600882019050919050565b60006110868287610f19565b915061109182610f73565b915061109d8286610f19565b91506110a882610fbf565b91506110b48285610f19565b91506110bf8261100b565b91506110cb8284610f19565b91506110d682611057565b915081905095945050505050565b7f4e487b7100000000000000000000000000000000000000000000000000000000600052604160045260246000fd5b7f4e487b7100000000000000000000000000000000000000000000000000000000600052602260045260246000fd5b6000600282049050600182168061115a57607f821691505b60208210810361116d5761116c611113565b5b50919050565b60008190508160005260206000209050919050565b60006020601f8301049050919050565b600082821b905092915050565b6000600883026111d57fffffffffffffffffffffffffffffffffffffffffffffffffffffffffffffffff82611198565b6111df8683611198565b95508019841693508086168417925050509392505050565b6000819050919050565b600061121c61121761121284610ca7565b6111f7565b610ca7565b9050919050565b6000819050919050565b61123683611201565b61124a61124282611223565b8484546111a5565b825550505050565b600090565b61125f611252565b61126a81848461122d565b505050565b5b8181101561128e57611283600082611257565b600181019050611270565b5050565b601f8211156112d3576112a481611173565b6112ad84611188565b810160208510156112bc578190505b6112d06112c885611188565b83018261126f565b50505b505050565b600082821c905092915050565b60006112f6600019846008026112d8565b1980831691505092915050565b600061130f83836112e5565b9150826002028217905092915050565b61132882610d90565b67ffffffffffffffff811115611341576113406110e4565b5b61134b8254611142565b611356828285611292565b600060209050601f8311600181146113895760008415611377578287015190505b6113818582611303565b8655506113e9565b601f19841661139786611173565b60005b828110156113bf5784890151825560018201915060208501945060208101905061139a565b868310156113dc57848901516113d8601f8916826112e5565b8355505b6001600288020188555050505b505050505050565b7f6572726f723a206f6e6c7920746865206f776e657220697320616c6c6f77656460008201527f20746f2063616c6c20746869732066756e6374696f6e00000000000000000000602082015250565b600061144d603683610bff565b9150611458826113f1565b604082019050919050565b6000602082019050818103600083015261147c81611440565b9050919050565b7f4e487b7100000000000000000000000000000000000000000000000000000000600052603260045260246000fd5b7f6572726f723a20616e20616464726573732063616e27742073656e642076616c60008201527f756520746f20697473656c660000000000000000000000000000000000000000602082015250565b600061150e602c83610bff565b9150611519826114b2565b604082019050919050565b6000602082019050818103600083015261153d81611501565b9050919050565b600061154f82610ca7565b91507fffffffffffffffffffffffffffffffffffffffffffffffffffffffffffffffff820361158157611580610e9d565b5b600182019050919050565b7f4e487b7100000000000000000000000000000000000000000000000000000000600052601260045260246000fd5b60006115c682610ca7565b91506115d183610ca7565b9250826115e1576115e061158c565b5b828204905092915050565b60006115f782610ca7565b915061160283610ca7565b925082820390508181111561161a57611619610e9d565b5b92915050565b600061162b82610ca7565b915061163683610ca7565b9250826116465761164561158c565b5b828206905092915050565b600061165c82610ca7565b915061166783610ca7565b925082820190508082111561167f5761167e610e9d565b5b92915050565b600061169082610ca7565b9150600082036116a3576116a2610e9d565b5b600182039050919050565b7f537472696e67733a20686578206c656e67746820696e73756666696369656e74600082015250565b60006116e4602083610bff565b91506116ef826116ae565b602082019050919050565b60006020820190508181036000830152611713816116d7565b905091905056fea2646970667358221220f61bcd81b79f939e77264a734a911bfdae51d77e9c735a9745a828537f89884264736f6c63430008110033",
  "immutableReferences": {},
  "source": "//SPDX-License-Identifier: MIT\r\npragma solidity >=0.4.16 <0.9.0;\r\n\r\nimport \"@openzeppelin/contracts/utils/Strings.sol\";\r\n\r\ncontract wallet{\r\n    address  public owner;\r\n    Transaction[] history;\r\n\r\n    struct Transaction{\r\n        address sender;\r\n        address receiver;\r\n        uint amount; \r\n        uint timestamp;\r\n        string message;\r\n    }\r\n\r\n    constructor() payable{\r\n        owner = msg.sender;\r\n        logTransaction(msg.sender, address(this), msg.value, block.timestamp);\r\n    }\r\n\r\n    modifier onlyOwner(){\r\n        require(msg.sender == owner, \"error: only the owner is allowed to call this function\");\r\n        _;\r\n    }\r\n\r\n    receive() external payable{\r\n        //contract receives funds from any other address(including owner) == DEPOSIT\r\n        require(msg.value <= msg.sender.balance, \"error: insufficient funds in account\");\r\n        logTransaction(msg.sender, address(this), msg.value, block.timestamp);\r\n    }\r\n    \r\n    function logTransaction(address sender, address receiver, uint amt, uint time) private{\r\n\r\n        //adding to logs\r\n        string memory sender_addr = Strings.toHexString(uint256(uint160(sender)));\r\n        string memory receiver_addr = Strings.toHexString(uint256(uint160(receiver)));\r\n        string memory message = string(abi.encodePacked(sender_addr,\" sent an amount of \", \r\n                                Strings.toString(amt),\" to \", receiver_addr,\" at \", Strings.toString(time*1000), \" seconds\"));\r\n        Transaction memory tr = Transaction(sender, receiver, amt, time, message);\r\n        history.push(tr);\r\n    }\r\n    function getHistory(uint i) public view returns (string memory){\r\n        return history[i].message;\r\n    }\r\n\r\n    function noOfTransactions() public view returns (uint256){\r\n        return history.length;\r\n    }\r\n\r\n    function transferAmount(address receiver, uint amt) public payable onlyOwner{   //== TRANSFER \r\n        require(receiver != msg.sender, \"error: an address can't send value to itself\");\r\n        require(amt <= address(this).balance, \"error: insufficient funds in account\");\r\n\r\n        payable(receiver).transfer(amt);\r\n\r\n        logTransaction(address(this), receiver, amt, block.timestamp);\r\n    } \r\n\r\n    function widthdrawAmount(uint amt) public onlyOwner{    // == WIDTHDRAW\r\n        require(amt <= address(this).balance, \"error: insufficient funds in account\");\r\n\r\n        payable(msg.sender).transfer(amt);\r\n        logTransaction(address(this), msg.sender, amt, block.timestamp);\r\n    }\r\n\r\n    function checkBalance() public view onlyOwner returns(uint){\r\n        return address(this).balance;\r\n    }\r\n\r\n\r\n\r\n}",
  "sourcePath": "C:\\Users\\Tanis\\Desktop\\Files\\projects\\wallet\\contracts\\Wallet.sol",
  "compiler": {
    "name": "solc",
    "version": "0.8.17+commit.8df45f5f.Emscripten.clang"
  },
  "schemaVersion": "3.4.10",
  "updatedAt": "2022-10-13T07:45:36.421Z",
  "networkType": "ethereum",
  "devdoc": {
    "kind": "dev",
    "methods": {},
    "version": 1
  },
  "userdoc": {
    "kind": "user",
    "methods": {},
    "version": 1
  }
}