{
  "contractName": "wallet",
  "abi": [
    {
      "inputs": [],
      "payable": true,
      "stateMutability": "payable",
      "type": "constructor"
    },
    {
      "constant": true,
      "inputs": [
        {
          "internalType": "uint256",
          "name": "",
          "type": "uint256"
        }
      ],
      "name": "history",
      "outputs": [
        {
          "internalType": "string",
          "name": "transaction_type",
          "type": "string"
        },
        {
          "internalType": "uint256",
          "name": "amount",
          "type": "uint256"
        }
      ],
      "payable": false,
      "stateMutability": "view",
      "type": "function"
    },
    {
      "constant": true,
      "inputs": [],
      "name": "owner",
      "outputs": [
        {
          "internalType": "address",
          "name": "",
          "type": "address"
        }
      ],
      "payable": false,
      "stateMutability": "view",
      "type": "function"
    },
    {
      "constant": false,
      "inputs": [
        {
          "internalType": "address",
          "name": "receiver",
          "type": "address"
        },
        {
          "internalType": "uint256",
          "name": "amt",
          "type": "uint256"
        }
      ],
      "name": "sendMoney",
      "outputs": [],
      "payable": true,
      "stateMutability": "payable",
      "type": "function"
    },
    {
      "constant": false,
      "inputs": [
        {
          "internalType": "uint256",
          "name": "amt",
          "type": "uint256"
        }
      ],
      "name": "receiveMoney",
      "outputs": [],
      "payable": true,
      "stateMutability": "payable",
      "type": "function"
    },
    {
      "constant": true,
      "inputs": [],
      "name": "checkBalance",
      "outputs": [
        {
          "internalType": "uint256",
          "name": "",
          "type": "uint256"
        }
      ],
      "payable": false,
      "stateMutability": "view",
      "type": "function"
    }
  ],
  "bytecode": "0x6080604052336000806101000a81548173ffffffffffffffffffffffffffffffffffffffff021916908373ffffffffffffffffffffffffffffffffffffffff16021790555034600260008060009054906101000a900473ffffffffffffffffffffffffffffffffffffffff1673ffffffffffffffffffffffffffffffffffffffff1673ffffffffffffffffffffffffffffffffffffffff16815260200190815260200160002081905550610988806100b86000396000f3fe60806040526004361061004a5760003560e01c80633194d29c1461004f5780638da5cb5b1461007d578063a7a38f0b146100d4578063c71daccb1461018f578063ee4ae2c9146101ba575b600080fd5b61007b6004803603602081101561006557600080fd5b8101908080359060200190929190505050610208565b005b34801561008957600080fd5b50610092610419565b604051808273ffffffffffffffffffffffffffffffffffffffff1673ffffffffffffffffffffffffffffffffffffffff16815260200191505060405180910390f35b3480156100e057600080fd5b5061010d600480360360208110156100f757600080fd5b810190808035906020019092919050505061043e565b6040518080602001838152602001828103825284818151815260200191508051906020019080838360005b83811015610153578082015181840152602081019050610138565b50505050905090810190601f1680156101805780820380516001836020036101000a031916815260200191505b50935050505060405180910390f35b34801561019b57600080fd5b506101a4610507565b6040518082815260200191505060405180910390f35b610206600480360360408110156101d057600080fd5b81019080803573ffffffffffffffffffffffffffffffffffffffff1690602001909291908035906020019092919050505061054e565b005b6000809054906101000a900473ffffffffffffffffffffffffffffffffffffffff1673ffffffffffffffffffffffffffffffffffffffff163373ffffffffffffffffffffffffffffffffffffffff1614156102ae576040517f08c379a00000000000000000000000000000000000000000000000000000000081526004018080602001828103825260228152602001806108fc6022913960400191505060405180910390fd5b80600260008060009054906101000a900473ffffffffffffffffffffffffffffffffffffffff1673ffffffffffffffffffffffffffffffffffffffff1673ffffffffffffffffffffffffffffffffffffffff1681526020019081526020016000206000828254019250508190555080600260003373ffffffffffffffffffffffffffffffffffffffff1673ffffffffffffffffffffffffffffffffffffffff16815260200190815260200160002060008282540392505081905550610371610818565b60405180604001604052806040518060400160405280600881526020017f72656365697665640000000000000000000000000000000000000000000000008152508152602001838152509050600181908060018154018082558091505090600182039060005260206000209060020201600090919290919091506000820151816000019080519060200190610407929190610832565b50602082015181600101555050505050565b6000809054906101000a900473ffffffffffffffffffffffffffffffffffffffff1681565b6001818154811061044b57fe5b9060005260206000209060020201600091509050806000018054600181600116156101000203166002900480601f0160208091040260200160405190810160405280929190818152602001828054600181600116156101000203166002900480156104f75780601f106104cc576101008083540402835291602001916104f7565b820191906000526020600020905b8154815290600101906020018083116104da57829003601f168201915b5050505050908060010154905082565b6000600260003373ffffffffffffffffffffffffffffffffffffffff1673ffffffffffffffffffffffffffffffffffffffff16815260200190815260200160002054905090565b6000809054906101000a900473ffffffffffffffffffffffffffffffffffffffff1673ffffffffffffffffffffffffffffffffffffffff163373ffffffffffffffffffffffffffffffffffffffff16146105f3576040517f08c379a000000000000000000000000000000000000000000000000000000000815260040180806020018281038252603681526020018061091e6036913960400191505060405180910390fd5b600260008060009054906101000a900473ffffffffffffffffffffffffffffffffffffffff1673ffffffffffffffffffffffffffffffffffffffff1673ffffffffffffffffffffffffffffffffffffffff168152602001908152602001600020548111156106ac576040517f08c379a00000000000000000000000000000000000000000000000000000000081526004018080602001828103825260248152602001806108d86024913960400191505060405180910390fd5b80600260008060009054906101000a900473ffffffffffffffffffffffffffffffffffffffff1673ffffffffffffffffffffffffffffffffffffffff1673ffffffffffffffffffffffffffffffffffffffff1681526020019081526020016000206000828254039250508190555080600260008473ffffffffffffffffffffffffffffffffffffffff1673ffffffffffffffffffffffffffffffffffffffff1681526020019081526020016000206000828254019250508190555061076f610818565b60405180604001604052806040518060400160405280600481526020017f73656e74000000000000000000000000000000000000000000000000000000008152508152602001838152509050600181908060018154018082558091505090600182039060005260206000209060020201600090919290919091506000820151816000019080519060200190610805929190610832565b5060208201518160010155505050505050565b604051806040016040528060608152602001600081525090565b828054600181600116156101000203166002900490600052602060002090601f016020900481019282601f1061087357805160ff19168380011785556108a1565b828001600101855582156108a1579182015b828111156108a0578251825591602001919060010190610885565b5b5090506108ae91906108b2565b5090565b6108d491905b808211156108d05760008160009055506001016108b8565b5090565b9056fe6572726f723a20696e73756666696369656e742066756e647320696e206163636f756e746f776e65722063616e27742073656e64206d6f6e657920746f207468656d73656c666572726f723a206f6e6c7920746865206f776e657220697320616c6c6f77656420746f2063616c6c20746869732066756e6374696f6ea265627a7a723158204d2830c9cffe569513b28c95daed66431207d26937ce24761235fbd25de5a03e64736f6c63430005100032",
  "source": "//SPDX-License-Identifier: MIT\r\npragma solidity >=0.4.16 <0.9.0;\r\n\r\ncontract wallet{\r\n    address  public owner;\r\n    transaction[] public history;\r\n    mapping(address=>uint) balance_at;\r\n\r\n    struct transaction{\r\n        //address addr;\r\n        string transaction_type;    //sent/received\r\n        uint amount; \r\n    }\r\n\r\n    constructor() public payable{\r\n        owner = msg.sender;\r\n        balance_at[owner] = msg.value;\r\n    }\r\n\r\n    modifier onlyOwner(){\r\n        require(msg.sender == owner, \"error: only the owner is allowed to call this function\");\r\n        _;\r\n    }\r\n\r\n    // function getHistory() public view onlyOwner returns (address){\r\n    //     return history[history.length-1].addr;\r\n    // }\r\n    function sendMoney(address receiver, uint amt) public payable onlyOwner{\r\n        require(amt <= balance_at[owner], \"error: insufficient funds in account\");\r\n\r\n        balance_at[owner] -= amt;\r\n        balance_at[receiver] += amt;\r\n        \r\n        //adding to logs\r\n        transaction memory tr = transaction(\"sent\", amt);\r\n        history.push(tr);\r\n    } \r\n\r\n    function receiveMoney(uint amt) public payable{\r\n        //only non-owner can send money to the owner\r\n        require(msg.sender != owner, \"owner can't send money to themself\");\r\n        \r\n        balance_at[owner] += amt;\r\n        balance_at[msg.sender] -= amt;\r\n        \r\n\r\n        //adding to logs\r\n        transaction memory tr = transaction(\"received\", amt);\r\n        history.push(tr);\r\n    }\r\n\r\n    function checkBalance() public view returns(uint){\r\n        return balance_at[msg.sender];\r\n    }\r\n\r\n    // function viewHistory() public view onlyOwner returns(transaction[] memory){\r\n    //     return history;\r\n    // }\r\n}",
  "sourcePath": "C:\\Users\\Tanis\\Desktop\\Files\\projects\\wallet\\contracts\\Wallet.sol",
  "compiler": {
    "name": "solc",
    "version": "0.5.16+commit.9c3226ce.Emscripten.clang"
  },
  "schemaVersion": "3.4.10",
  "updatedAt": "2022-10-11T05:36:13.927Z",
  "networkType": "ethereum",
  "devdoc": {
    "methods": {}
  },
  "userdoc": {
    "methods": {}
  }
}